{
  "_format": "hh-sol-artifact-1",
  "contractName": "Token",
  "sourceName": "contracts/Token.sol",
  "abi": [
    {
      "inputs": [],
      "stateMutability": "nonpayable",
      "type": "constructor"
    },
    {
      "inputs": [
        {
          "internalType": "address",
          "name": "account",
          "type": "address"
        }
      ],
      "name": "balance",
      "outputs": [
        {
          "internalType": "uint256",
          "name": "",
          "type": "uint256"
        }
      ],
      "stateMutability": "view",
      "type": "function"
    },
    {
      "inputs": [],
      "name": "name",
      "outputs": [
        {
          "internalType": "string",
          "name": "",
          "type": "string"
        }
      ],
      "stateMutability": "view",
      "type": "function"
    },
    {
      "inputs": [],
      "name": "owner",
      "outputs": [
        {
          "internalType": "address",
          "name": "",
          "type": "address"
        }
      ],
      "stateMutability": "view",
      "type": "function"
    },
    {
      "inputs": [],
      "name": "symbol",
      "outputs": [
        {
          "internalType": "string",
          "name": "",
          "type": "string"
        }
      ],
      "stateMutability": "view",
      "type": "function"
    },
    {
      "inputs": [],
      "name": "totalSupply",
      "outputs": [
        {
          "internalType": "uint256",
          "name": "",
          "type": "uint256"
        }
      ],
      "stateMutability": "view",
      "type": "function"
    },
    {
      "inputs": [
        {
          "internalType": "address",
          "name": "to",
          "type": "address"
        },
        {
          "internalType": "uint256",
          "name": "amt",
          "type": "uint256"
        }
      ],
      "name": "transfer",
      "outputs": [],
      "stateMutability": "nonpayable",
      "type": "function"
    }
  ],
  "bytecode": "0x60806040526040518060400160405280600b81526020017f4b6e6f636b20546f6b656e0000000000000000000000000000000000000000008152506000908051906020019061004f92919061013b565b506040518060400160405280600381526020017f6b4f2400000000000000000000000000000000000000000000000000000000008152506001908051906020019061009b92919061013b565b506127106002553480156100ae57600080fd5b50600254600460003373ffffffffffffffffffffffffffffffffffffffff1673ffffffffffffffffffffffffffffffffffffffff1681526020019081526020016000208190555033600360006101000a81548173ffffffffffffffffffffffffffffffffffffffff021916908373ffffffffffffffffffffffffffffffffffffffff16021790555061023f565b8280546101479061020d565b90600052602060002090601f01602090048101928261016957600085556101b0565b82601f1061018257805160ff19168380011785556101b0565b828001600101855582156101b0579182015b828111156101af578251825591602001919060010190610194565b5b5090506101bd91906101c1565b5090565b5b808211156101da5760008160009055506001016101c2565b5090565b7f4e487b7100000000000000000000000000000000000000000000000000000000600052602260045260246000fd5b6000600282049050600182168061022557607f821691505b60208210811415610239576102386101de565b5b50919050565b610a658061024e6000396000f3fe608060405234801561001057600080fd5b50600436106100625760003560e01c806306fdde031461006757806318160ddd146100855780638da5cb5b146100a357806395d89b41146100c1578063a9059cbb146100df578063e3d670d7146100fb575b600080fd5b61006f61012b565b60405161007c919061066f565b60405180910390f35b61008d6101b9565b60405161009a91906106aa565b60405180910390f35b6100ab6101bf565b6040516100b89190610706565b60405180910390f35b6100c96101e5565b6040516100d6919061066f565b60405180910390f35b6100f960048036038101906100f4919061077e565b610273565b005b610115600480360381019061011091906107be565b610429565b60405161012291906106aa565b60405180910390f35b600080546101389061081a565b80601f01602080910402602001604051908101604052809291908181526020018280546101649061081a565b80156101b15780601f10610186576101008083540402835291602001916101b1565b820191906000526020600020905b81548152906001019060200180831161019457829003601f168201915b505050505081565b60025481565b600360009054906101000a900473ffffffffffffffffffffffffffffffffffffffff1681565b600180546101f29061081a565b80601f016020809104026020016040519081016040528092919081815260200182805461021e9061081a565b801561026b5780601f106102405761010080835404028352916020019161026b565b820191906000526020600020905b81548152906001019060200180831161024e57829003601f168201915b505050505081565b6102966040518060600160405280602f81526020016109e0602f91398284610472565b6102f7604051806060016040528060218152602001610a0f60219139600460003373ffffffffffffffffffffffffffffffffffffffff1673ffffffffffffffffffffffffffffffffffffffff16815260200190815260200160002054610511565b80600460003373ffffffffffffffffffffffffffffffffffffffff1673ffffffffffffffffffffffffffffffffffffffff168152602001908152602001600020541015610379576040517f08c379a000000000000000000000000000000000000000000000000000000000815260040161037090610898565b60405180910390fd5b80600460003373ffffffffffffffffffffffffffffffffffffffff1673ffffffffffffffffffffffffffffffffffffffff16815260200190815260200160002060008282546103c891906108e7565b9250508190555080600460008473ffffffffffffffffffffffffffffffffffffffff1673ffffffffffffffffffffffffffffffffffffffff168152602001908152602001600020600082825461041e919061091b565b925050819055505050565b6000600460008373ffffffffffffffffffffffffffffffffffffffff1673ffffffffffffffffffffffffffffffffffffffff168152602001908152602001600020549050919050565b61050c83838360405160240161048a93929190610971565b6040516020818303038152906040527fe3849f79000000000000000000000000000000000000000000000000000000007bffffffffffffffffffffffffffffffffffffffffffffffffffffffff19166020820180517bffffffffffffffffffffffffffffffffffffffffffffffffffffffff83818316178352505050506105ad565b505050565b6105a982826040516024016105279291906109af565b6040516020818303038152906040527f9710a9d0000000000000000000000000000000000000000000000000000000007bffffffffffffffffffffffffffffffffffffffffffffffffffffffff19166020820180517bffffffffffffffffffffffffffffffffffffffffffffffffffffffff83818316178352505050506105ad565b5050565b60008151905060006a636f6e736f6c652e6c6f679050602083016000808483855afa5050505050565b600081519050919050565b600082825260208201905092915050565b60005b838110156106105780820151818401526020810190506105f5565b8381111561061f576000848401525b50505050565b6000601f19601f8301169050919050565b6000610641826105d6565b61064b81856105e1565b935061065b8185602086016105f2565b61066481610625565b840191505092915050565b600060208201905081810360008301526106898184610636565b905092915050565b6000819050919050565b6106a481610691565b82525050565b60006020820190506106bf600083018461069b565b92915050565b600073ffffffffffffffffffffffffffffffffffffffff82169050919050565b60006106f0826106c5565b9050919050565b610700816106e5565b82525050565b600060208201905061071b60008301846106f7565b92915050565b600080fd5b61072f816106e5565b811461073a57600080fd5b50565b60008135905061074c81610726565b92915050565b61075b81610691565b811461076657600080fd5b50565b60008135905061077881610752565b92915050565b6000806040838503121561079557610794610721565b5b60006107a38582860161073d565b92505060206107b485828601610769565b9150509250929050565b6000602082840312156107d4576107d3610721565b5b60006107e28482850161073d565b91505092915050565b7f4e487b7100000000000000000000000000000000000000000000000000000000600052602260045260246000fd5b6000600282049050600182168061083257607f821691505b60208210811415610846576108456107eb565b5b50919050565b7f4e6f7420656e6f75676820746f6b656e00000000000000000000000000000000600082015250565b60006108826010836105e1565b915061088d8261084c565b602082019050919050565b600060208201905081810360008301526108b181610875565b9050919050565b7f4e487b7100000000000000000000000000000000000000000000000000000000600052601160045260246000fd5b60006108f282610691565b91506108fd83610691565b9250828210156109105761090f6108b8565b5b828203905092915050565b600061092682610691565b915061093183610691565b9250827fffffffffffffffffffffffffffffffffffffffffffffffffffffffffffffffff03821115610966576109656108b8565b5b828201905092915050565b6000606082019050818103600083015261098b8186610636565b905061099a602083018561069b565b6109a760408301846106f7565b949350505050565b600060408201905081810360008301526109c98185610636565b90506109d8602083018461069b565b939250505056fe202a2a53656e6465722069732073656e64696e6720257320746f6b656e20746f2025732061646472657373202a2a20202a2a53656e6465722062616c616e636520697320257320746f6b656e202a2a20a264697066735822122023042015cfc99908fd0dee8c0b7e801dd9eb57e2690bbb4d31ce70eed2f5addd64736f6c63430008090033",
  "linkReferences": {},
  "deployedLinkReferences": {}
}